{
    "contractName": "ZombieOwnership",
    "abi": [
        {
            "anonymous": false,
            "inputs": [
                {
                    "indexed": true,
                    "internalType": "address",
                    "name": "_owner",
                    "type": "address"
                },
                {
                    "indexed": true,
                    "internalType": "address",
                    "name": "_approved",
                    "type": "address"
                },
                {
                    "indexed": true,
                    "internalType": "uint256",
                    "name": "_tokenId",
                    "type": "uint256"
                }
            ],
            "name": "Approval",
            "type": "event"
        },
        {
            "anonymous": false,
            "inputs": [
                {
                    "indexed": false,
                    "internalType": "uint256",
                    "name": "zombieId",
                    "type": "uint256"
                },
                {
                    "indexed": false,
                    "internalType": "string",
                    "name": "name",
                    "type": "string"
                },
                {
                    "indexed": false,
                    "internalType": "uint256",
                    "name": "dna",
                    "type": "uint256"
                }
            ],
            "name": "NewZombie",
            "type": "event"
        },
        {
            "anonymous": false,
            "inputs": [
                {
                    "indexed": true,
                    "internalType": "address",
                    "name": "previousOwner",
                    "type": "address"
                },
                {
                    "indexed": true,
                    "internalType": "address",
                    "name": "newOwner",
                    "type": "address"
                }
            ],
            "name": "OwnershipTransferred",
            "type": "event"
        },
        {
            "anonymous": false,
            "inputs": [
                {
                    "indexed": true,
                    "internalType": "address",
                    "name": "_from",
                    "type": "address"
                },
                {
                    "indexed": true,
                    "internalType": "address",
                    "name": "_to",
                    "type": "address"
                },
                {
                    "indexed": true,
                    "internalType": "uint256",
                    "name": "_tokenId",
                    "type": "uint256"
                }
            ],
            "name": "Transfer",
            "type": "event"
        },
        {
            "constant": false,
            "inputs": [
                {
                    "internalType": "address",
                    "name": "_approved",
                    "type": "address"
                },
                {
                    "internalType": "uint256",
                    "name": "_tokenId",
                    "type": "uint256"
                }
            ],
            "name": "approve",
            "outputs": [],
            "payable": true,
            "stateMutability": "payable",
            "type": "function"
        },
        {
            "constant": false,
            "inputs": [
                {
                    "internalType": "uint256",
                    "name": "_zombieId",
                    "type": "uint256"
                },
                {
                    "internalType": "uint256",
                    "name": "_targetId",
                    "type": "uint256"
                }
            ],
            "name": "attack",
            "outputs": [],
            "payable": false,
            "stateMutability": "nonpayable",
            "type": "function"
        },
        {
            "constant": true,
            "inputs": [
                {
                    "internalType": "address",
                    "name": "_owner",
                    "type": "address"
                }
            ],
            "name": "balanceOf",
            "outputs": [
                {
                    "internalType": "uint256",
                    "name": "",
                    "type": "uint256"
                }
            ],
            "payable": false,
            "stateMutability": "view",
            "type": "function"
        },
        {
            "constant": false,
            "inputs": [
                {
                    "internalType": "uint256",
                    "name": "_zombieId",
                    "type": "uint256"
                },
                {
                    "internalType": "uint256",
                    "name": "_newDna",
                    "type": "uint256"
                }
            ],
            "name": "changeDna",
            "outputs": [],
            "payable": false,
            "stateMutability": "nonpayable",
            "type": "function"
        },
        {
            "constant": false,
            "inputs": [
                {
                    "internalType": "uint256",
                    "name": "_zombieId",
                    "type": "uint256"
                },
                {
                    "internalType": "string",
                    "name": "_newName",
                    "type": "string"
                }
            ],
            "name": "changeName",
            "outputs": [],
            "payable": false,
            "stateMutability": "nonpayable",
            "type": "function"
        },
        {
            "constant": false,
            "inputs": [
                {
                    "internalType": "string",
                    "name": "_name",
                    "type": "string"
                }
            ],
            "name": "createRandomZombie",
            "outputs": [],
            "payable": false,
            "stateMutability": "nonpayable",
            "type": "function"
        },
        {
            "constant": false,
            "inputs": [
                {
                    "internalType": "uint256",
                    "name": "_zombieId",
                    "type": "uint256"
                },
                {
                    "internalType": "uint256",
                    "name": "_kittyId",
                    "type": "uint256"
                }
            ],
            "name": "feedOnKitty",
            "outputs": [],
            "payable": false,
            "stateMutability": "nonpayable",
            "type": "function"
        },
        {
            "constant": true,
            "inputs": [
                {
                    "internalType": "address",
                    "name": "_owner",
                    "type": "address"
                }
            ],
            "name": "getZombiesByOwner",
            "outputs": [
                {
                    "internalType": "uint256[]",
                    "name": "",
                    "type": "uint256[]"
                }
            ],
            "payable": false,
            "stateMutability": "view",
            "type": "function"
        },
        {
            "constant": true,
            "inputs": [],
            "name": "isOwner",
            "outputs": [
                {
                    "internalType": "bool",
                    "name": "",
                    "type": "bool"
                }
            ],
            "payable": false,
            "stateMutability": "view",
            "type": "function"
        },
        {
            "constant": true,
            "inputs": [],
            "name": "owner",
            "outputs": [
                {
                    "internalType": "address",
                    "name": "",
                    "type": "address"
                }
            ],
            "payable": false,
            "stateMutability": "view",
            "type": "function"
        },
        {
            "constant": true,
            "inputs": [
                {
                    "internalType": "uint256",
                    "name": "_tokenId",
                    "type": "uint256"
                }
            ],
            "name": "ownerOf",
            "outputs": [
                {
                    "internalType": "address",
                    "name": "",
                    "type": "address"
                }
            ],
            "payable": false,
            "stateMutability": "view",
            "type": "function"
        },
        {
            "constant": false,
            "inputs": [],
            "name": "renounceOwnership",
            "outputs": [],
            "payable": false,
            "stateMutability": "nonpayable",
            "type": "function"
        },
        {
            "constant": false,
            "inputs": [
                {
                    "internalType": "address",
                    "name": "_address",
                    "type": "address"
                }
            ],
            "name": "setKittyContractAddress",
            "outputs": [],
            "payable": false,
            "stateMutability": "nonpayable",
            "type": "function"
        },
        {
            "constant": false,
            "inputs": [
                {
                    "internalType": "uint256",
                    "name": "_fee",
                    "type": "uint256"
                }
            ],
            "name": "setLevelUpFee",
            "outputs": [],
            "payable": false,
            "stateMutability": "nonpayable",
            "type": "function"
        },
        {
            "constant": false,
            "inputs": [
                {
                    "internalType": "address",
                    "name": "_from",
                    "type": "address"
                },
                {
                    "internalType": "address",
                    "name": "_to",
                    "type": "address"
                },
                {
                    "internalType": "uint256",
                    "name": "_tokenId",
                    "type": "uint256"
                }
            ],
            "name": "transferFrom",
            "outputs": [],
            "payable": true,
            "stateMutability": "payable",
            "type": "function"
        },
        {
            "constant": false,
            "inputs": [
                {
                    "internalType": "address",
                    "name": "newOwner",
                    "type": "address"
                }
            ],
            "name": "transferOwnership",
            "outputs": [],
            "payable": false,
            "stateMutability": "nonpayable",
            "type": "function"
        },
        {
            "constant": false,
            "inputs": [],
            "name": "withdraw",
            "outputs": [],
            "payable": false,
            "stateMutability": "nonpayable",
            "type": "function"
        },
        {
            "constant": true,
            "inputs": [
                {
                    "internalType": "uint256",
                    "name": "",
                    "type": "uint256"
                }
            ],
            "name": "zombieToOwner",
            "outputs": [
                {
                    "internalType": "address",
                    "name": "",
                    "type": "address"
                }
            ],
            "payable": false,
            "stateMutability": "view",
            "type": "function"
        }
    ],
    "bytecode": "608060408190526010600155662386f26fc100006002556201518060035566038d7ea4c68000600855600060098190556046600a5580546001600160a01b03191633178082556001600160a01b0316917f8be0079c531659141344cd1fd0a4f28419497f9722a3daafe3b4186f6b6457e0908290a361142f806100836000396000f3fe6080604052600436106101095760003560e01c806370a08231116100955780638f32d59b116100645780638f32d59b1461042f578063c39cbef114610458578063ccf670f8146104dc578063e1fa763814610506578063f2fde38b1461053657610109565b806370a082311461030d578063715018a6146103525780637bff0a01146103675780638da5cb5b1461041a57610109565b80634412e104116100dc5780634412e104146101b7578063528b7b8f1461023a5780635f4623f1146102805780635faf2880146102b35780636352211e146102e357610109565b8063095ea7b31461010e57806317a7f4cc1461013c57806323b872dd1461016c5780633ccfd60b146101a2575b600080fd5b61013a6004803603604081101561012457600080fd5b506001600160a01b038135169060200135610569565b005b34801561014857600080fd5b5061013a6004803603604081101561015f57600080fd5b50803590602001356105e8565b61013a6004803603606081101561018257600080fd5b506001600160a01b03813581169160208101359091169060400135610697565b3480156101ae57600080fd5b5061013a6106e6565b3480156101c357600080fd5b506101ea600480360360208110156101da57600080fd5b50356001600160a01b031661073d565b60408051602080825283518183015283519192839290830191858101910280838360005b8381101561022657818101518382015260200161020e565b505050509050019250505060405180910390f35b34801561024657600080fd5b506102646004803603602081101561025d57600080fd5b5035610816565b604080516001600160a01b039092168252519081900360200190f35b34801561028c57600080fd5b5061013a600480360360208110156102a357600080fd5b50356001600160a01b0316610831565b3480156102bf57600080fd5b5061013a600480360360408110156102d657600080fd5b5080359060200135610864565b3480156102ef57600080fd5b506102646004803603602081101561030657600080fd5b50356108e9565b34801561031957600080fd5b506103406004803603602081101561033057600080fd5b50356001600160a01b0316610904565b60408051918252519081900360200190f35b34801561035e57600080fd5b5061013a61091f565b34801561037357600080fd5b5061013a6004803603602081101561038a57600080fd5b8101906020810181356401000000008111156103a557600080fd5b8201836020820111156103b757600080fd5b803590602001918460018302840111640100000000831117156103d957600080fd5b91908080601f01602080910402602001604051908101604052809392919081815260200183838082843760009201919091525092955061097a945050505050565b34801561042657600080fd5b506102646109ab565b34801561043b57600080fd5b506104446109bb565b604080519115158252519081900360200190f35b34801561046457600080fd5b5061013a6004803603604081101561047b57600080fd5b8135919081019060408101602082013564010000000081111561049d57600080fd5b8201836020820111156104af57600080fd5b803590602001918460018302840111640100000000831117156104d157600080fd5b5090925090506109cc565b3480156104e857600080fd5b5061013a600480360360208110156104ff57600080fd5b5035610a59565b34801561051257600080fd5b5061013a6004803603604081101561052957600080fd5b5080359060200135610a6f565b34801561054257600080fd5b5061013a6004803603602081101561055957600080fd5b50356001600160a01b0316610c44565b60008181526005602052604090205481906001600160a01b0316331461058e57600080fd5b6000828152600b602052604080822080546001600160a01b0319166001600160a01b0387169081179091559051849233917f8c5be1e5ebec7d5bd14f71427d1e84f3dd0314c0f7b2291e5b200ac8c7c3b9259190a4505050565b6007546040805163e98b7f4d60e01b81526004810184905290516000926001600160a01b03169163e98b7f4d91602480830192610140929190829003018186803b15801561063557600080fd5b505afa158015610649573d6000803e3d6000fd5b505050506040513d61014081101561066057600080fd5b5061012001516040805180820190915260058152646b6974747960d81b60208201529091506106929084908390610c61565b505050565b6000818152600560205260409020546001600160a01b03163314806106d257506000818152600b60205260409020546001600160a01b031633145b6106db57600080fd5b610692838383610e25565b6106ee6109bb565b6106f757600080fd5b60006107016109ab565b6040519091506001600160a01b038216904780156108fc02916000818181858888f19350505050158015610739573d6000803e3d6000fd5b5050565b60608060066000846001600160a01b03166001600160a01b031681526020019081526020016000205460405190808252806020026020018201604052801561078f578160200160208202803883390190505b509050600060015b6001600160a01b03851660009081526006602052604090205481101561080d576000818152600560205260409020546001600160a01b038681169116141561080557808383815181106107e657fe5b602090810291909101015261080282600163ffffffff610eef16565b91505b600101610797565b50909392505050565b6005602052600090815260409020546001600160a01b031681565b6108396109bb565b61084257600080fd5b600780546001600160a01b0319166001600160a01b0392909216919091179055565b601482816004828154811061087557fe5b600091825260209091206002600390920201015463ffffffff16101561089a57600080fd5b60008481526005602052604090205484906001600160a01b031633146108bf57600080fd5b83600486815481106108cd57fe5b9060005260206000209060030201600101819055505050505050565b6000908152600560205260409020546001600160a01b031690565b6001600160a01b031660009081526006602052604090205490565b6109276109bb565b61093057600080fd5b600080546040516001600160a01b03909116907f8be0079c531659141344cd1fd0a4f28419497f9722a3daafe3b4186f6b6457e0908390a3600080546001600160a01b0319169055565b336000908152600660205260409020541561099457600080fd5b600061099f82610f05565b90506107398282610f8e565b6000546001600160a01b03165b90565b6000546001600160a01b0316331490565b60028381600482815481106109dd57fe5b600091825260209091206002600390920201015463ffffffff161015610a0257600080fd5b60008581526005602052604090205485906001600160a01b03163314610a2757600080fd5b848460048881548110610a3657fe5b60009182526020909120610a5093600390920201916112f4565b50505050505050565b610a616109bb565b610a6a57600080fd5b600855565b60008281526005602052604090205482906001600160a01b03163314610a9457600080fd5b600060048481548110610aa357fe5b90600052602060002090600302019050600060048481548110610ac257fe5b906000526020600020906003020190506000610ade60646111b3565b9050600a548111610bc5576002830154610b0490600160401b900461ffff166001611215565b60028401805461ffff92909216600160401b0261ffff60401b199092169190911790819055610b3f9063ffffffff9081169060019061122b16565b6002848101805463ffffffff191663ffffffff938416179055830154610b7591600160501b90910461ffff169060019061121516565b82600201600a6101000a81548161ffff021916908361ffff160217905550610bc0868360010154604051806040016040528060068152602001657a6f6d62696560d01b815250610c61565b610c3c565b6002830154610be090600160501b900461ffff166001611215565b6002848101805461ffff60501b1916600160501b61ffff94851602179055830154610c1591600160401b909104166001611215565b8260020160086101000a81548161ffff021916908361ffff160217905550610c3c83611243565b505050505050565b610c4c6109bb565b610c5557600080fd5b610c5e8161126d565b50565b60008381526005602052604090205483906001600160a01b03163314610c8657600080fd5b600060048581548110610c9557fe5b90600052602060002090600302019050610cae816112db565b610cb757600080fd5b6002548481610cc257fe5b069350600060028583600101540181610cd757fe5b0490506040516020018080646b6974747960d81b815250600501905060405160208183030381529060405280519060200120846040516020018082805190602001908083835b60208310610d3c5780518252601f199092019160209182019101610d1d565b6001836020036101000a038019825116818451168082178552505050505050905001915050604051602081830303815290604052805190602001201415610d87576064810690036063015b815460408051602060026001851615610100026000190190941693909304601f8101849004840282018401909252818152610e1c9290918591830182828015610e115780601f10610de657610100808354040283529160200191610e11565b820191906000526020600020905b815481529060010190602001808311610df457829003601f168201915b505050505082610f8e565b610c3c82611243565b6001600160a01b038216600090815260066020526040902054610e4f90600163ffffffff610eef16565b6001600160a01b038084166000908152600660205260408082209390935590851681522054610e8590600163ffffffff610eef16565b6001600160a01b038481166000818152600660209081526040808320959095558582526005905283812080546001600160a01b0319169387169384179055925184937fddf252ad1be2c89b69c2b068fc378daa952ba7f163c4a11628f55a4df523b3ef91a4505050565b600082820183811015610efe57fe5b9392505050565b600080826040516020018082805190602001908083835b60208310610f3b5780518252601f199092019160209182019101610f1c565b6001836020036101000a0380198251168184511680821785525050505050509050019150506040516020818303038152906040528051906020012060001c90506002548181610f8657fe5b069392505050565b6040805160c0810182528381526020808201849052600192820183905260038054420163ffffffff16606084015260006080840181905260a084018190526004805495860180825591528351805191959092027f8a35acfbc15ff81a39ae7d344fd709f28e8600b4aa8c65c6b64bfe7fe36bd19b0192611012928492910190611372565b50602082810151600183810191909155604080850151600290940180546060870151608088015160a09098015163ffffffff1990921663ffffffff9788161767ffffffff000000001916640100000000918816919091021761ffff60401b1916600160401b61ffff988916021761ffff60501b1916600160501b979091169690960295909517909455600454600019016000818152600584528581208054336001600160a01b031990911681179091558152600690935293909120549293506110dc9291610eef16565b60066000336001600160a01b03166001600160a01b03168152602001908152602001600020819055507f88f026aacbbecc90c18411df4b1185fd8d9be2470f1962f192bf84a27d0704b78184846040518084815260200180602001838152602001828103825284818151815260200191508051906020019080838360005b8381101561117257818101518382015260200161115a565b50505050905090810190601f16801561119f5780820380516001836020036101000a031916815260200191505b5094505050505060405180910390a1505050565b6009546000906111ca90600163ffffffff610eef16565b600981905560408051426020808301919091523360601b82840152605480830194909452825180830390940184526074909101909152815191012082908161120e57fe5b0692915050565b600082820161ffff8085169082161015610efe57fe5b600082820163ffffffff8085169082161015610efe57fe5b60035442018160020160046101000a81548163ffffffff021916908363ffffffff16021790555050565b6001600160a01b03811661128057600080fd5b600080546040516001600160a01b03808516939216917f8be0079c531659141344cd1fd0a4f28419497f9722a3daafe3b4186f6b6457e091a3600080546001600160a01b0319166001600160a01b0392909216919091179055565b600201544264010000000090910463ffffffff16111590565b828054600181600116156101000203166002900490600052602060002090601f016020900481019282601f106113355782800160ff19823516178555611362565b82800160010185558215611362579182015b82811115611362578235825591602001919060010190611347565b5061136e9291506113e0565b5090565b828054600181600116156101000203166002900490600052602060002090601f016020900481019282601f106113b357805160ff1916838001178555611362565b82800160010185558215611362579182015b828111156113625782518255916020019190600101906113c5565b6109b891905b8082111561136e57600081556001016113e656fea265627a7a72315820a0e30cc6ab75ccd794363e5cb28f4903f455c5d11c2593dbe415b8c20d02c38064736f6c63430005110032",
    "sourcePath": "f:/work/03_blockchain/zombie/zombieownership.sol",
    "compiler": {
        "name": "solc",
        "version": "0.5.17+commit.d19bba13"
    },
    "functionHashes": {
        "approve(address,uint256)": "095ea7b3",
        "attack(uint256,uint256)": "e1fa7638",
        "balanceOf(address)": "70a08231",
        "changeDna(uint256,uint256)": "5faf2880",
        "changeName(uint256,string)": "c39cbef1",
        "createRandomZombie(string)": "7bff0a01",
        "feedOnKitty(uint256,uint256)": "17a7f4cc",
        "getZombiesByOwner(address)": "4412e104",
        "isOwner()": "8f32d59b",
        "owner()": "8da5cb5b",
        "ownerOf(uint256)": "6352211e",
        "renounceOwnership()": "715018a6",
        "setKittyContractAddress(address)": "5f4623f1",
        "setLevelUpFee(uint256)": "ccf670f8",
        "transferFrom(address,address,uint256)": "23b872dd",
        "transferOwnership(address)": "f2fde38b",
        "withdraw()": "3ccfd60b",
        "zombieToOwner(uint256)": "528b7b8f"
    },
    "gasEstimates": {
        "creation": {
            "codeDepositCost": "1033400",
            "executionCost": "128466",
            "totalCost": "1161866"
        },
        "external": {
            "approve(address,uint256)": "23970",
            "attack(uint256,uint256)": "infinite",
            "balanceOf(address)": "1165",
            "changeDna(uint256,uint256)": "23867",
            "changeName(uint256,string)": "infinite",
            "createRandomZombie(string)": "infinite",
            "feedOnKitty(uint256,uint256)": "infinite",
            "getZombiesByOwner(address)": "infinite",
            "isOwner()": "1049",
            "owner()": "1127",
            "ownerOf(uint256)": "1256",
            "renounceOwnership()": "24237",
            "setKittyContractAddress(address)": "22007",
            "setLevelUpFee(uint256)": "21122",
            "transferFrom(address,address,uint256)": "infinite",
            "transferOwnership(address)": "24468",
            "withdraw()": "infinite",
            "zombieToOwner(uint256)": "1190"
        },
        "internal": {
            "_transfer(address,address,uint256)": "infinite"
        }
    }
}